{
  "_format": "hh-sol-artifact-1",
  "contractName": "TestCardanoVerifySignature",
  "sourceName": "contracts/mocks/TestCardanoVerifySignature.sol",
  "abi": [
    {
      "inputs": [
        {
          "internalType": "string",
          "name": "txRaw",
          "type": "string"
        },
        {
          "internalType": "string",
          "name": "signature",
          "type": "string"
        },
        {
          "internalType": "string",
          "name": "verifyingKey",
          "type": "string"
        }
      ],
      "name": "check",
      "outputs": [
        {
          "internalType": "bool",
          "name": "",
          "type": "bool"
        }
      ],
      "stateMutability": "view",
      "type": "function"
    }
  ],
  "bytecode": "0x608060405234801561001057600080fd5b50610300806100206000396000f3fe608060405234801561001057600080fd5b506004361061002b5760003560e01c806330749f5314610030575b600080fd5b61004361003e36600461015c565b610057565b604051901515815260200160405180910390f35b60008060006120506001600160a01b03166203a9808a8a8a8a8a8a600160405160200161008a979695949392919061021f565b60408051601f19818403018152908290526100a491610272565b6000604051808303818686fa925050503d80600081146100e0576040519150601f19603f3d011682016040523d82523d6000602084013e6100e5565b606091505b509150915081801561010657508080602001905181019061010691906102a1565b9998505050505050505050565b60008083601f84011261012557600080fd5b50813567ffffffffffffffff81111561013d57600080fd5b60208301915083602082850101111561015557600080fd5b9250929050565b6000806000806000806060878903121561017557600080fd5b863567ffffffffffffffff8082111561018d57600080fd5b6101998a838b01610113565b909850965060208901359150808211156101b257600080fd5b6101be8a838b01610113565b909650945060408901359150808211156101d757600080fd5b506101e489828a01610113565b979a9699509497509295939492505050565b81835281816020850137506000828201602090810191909152601f909101601f19169091010190565b60808152600061023360808301898b6101f6565b828103602084015261024681888a6101f6565b9050828103604084015261025b8186886101f6565b915050821515606083015298975050505050505050565b6000825160005b818110156102935760208186018101518583015201610279565b506000920191825250919050565b6000602082840312156102b357600080fd5b815180151581146102c357600080fd5b939250505056fea2646970667358221220811e5c143e74d9a7737ea32af39c76b4008cdfed01eeedc8f2095e5e8097619d64736f6c63430008130033",
  "linkReferences": {},
  "deployedLinkReferences": {}
}