{
  "_format": "hh-sol-artifact-1",
  "contractName": "TestCardanoVerifySignature",
  "sourceName": "consensus/polybft/contractsapi/test-contracts/TestCardanoVerifySignature.sol",
  "abi": [
    {
      "inputs": [
        {
          "internalType": "string",
          "name": "txRaw",
          "type": "string"
        },
        {
          "internalType": "string",
          "name": "signature",
          "type": "string"
        },
        {
          "internalType": "string",
          "name": "verifyingKey",
          "type": "string"
        }
      ],
      "name": "check",
      "outputs": [
        {
          "internalType": "bool",
          "name": "",
          "type": "bool"
        }
      ],
      "stateMutability": "view",
      "type": "function"
    },
    {
      "inputs": [
        {
          "internalType": "string",
          "name": "keyHash",
          "type": "string"
        },
        {
          "internalType": "string",
          "name": "signature",
          "type": "string"
        },
        {
          "internalType": "string",
          "name": "verifyingKey",
          "type": "string"
        }
      ],
      "name": "checkMsg",
      "outputs": [
        {
          "internalType": "bool",
          "name": "",
          "type": "bool"
        }
      ],
      "stateMutability": "view",
      "type": "function"
    }
  ],
  "bytecode": "0x608060405234801561001057600080fd5b50610415806100206000396000f3fe608060405234801561001057600080fd5b50600436106100365760003560e01c806302ecfdde1461003b57806330749f5314610062575b600080fd5b61004e6100493660046101ca565b610075565b604051901515815260200160405180910390f35b61004e6100703660046101ca565b61014e565b60008060006120506001600160a01b0316620249f08a8a60405160200161009d929190610264565b60408051601f19818403018152908290526100c5918b908b908b908b906000906020016102da565b60408051601f19818403018152908290526100df91610347565b6000604051808303818686fa925050503d806000811461011b576040519150601f19603f3d011682016040523d82523d6000602084013e610120565b606091505b50915091508180156101415750808060200190518101906101419190610363565b9998505050505050505050565b60008060006120506001600160a01b0316620249f08a8a8a8a8a8a60016040516020016100c5979695949392919061038c565b60008083601f84011261019357600080fd5b50813567ffffffffffffffff8111156101ab57600080fd5b6020830191508360208285010111156101c357600080fd5b9250929050565b600080600080600080606087890312156101e357600080fd5b863567ffffffffffffffff808211156101fb57600080fd5b6102078a838b01610181565b9098509650602089013591508082111561022057600080fd5b61022c8a838b01610181565b9096509450604089013591508082111561024557600080fd5b5061025289828a01610181565b979a9699509497509295939492505050565b6c03432b63637903bb7b936321d1609d1b81528183600d83013760009101600d01908152919050565b60005b838110156102a8578181015183820152602001610290565b50506000910152565b81835281816020850137506000828201602090810191909152601f909101601f19169091010190565b60808152600087518060808401526102f98160a0850160208c0161028d565b601f01601f1916820182810360a0908101602085015261031c908201888a6102b1565b905082810360408401526103318186886102b1565b9150508215156060830152979650505050505050565b6000825161035981846020870161028d565b9190910192915050565b60006020828403121561037557600080fd5b8151801515811461038557600080fd5b9392505050565b6080815260006103a060808301898b6102b1565b82810360208401526103b381888a6102b1565b905082810360408401526103c88186886102b1565b91505082151560608301529897505050505050505056fea2646970667358221220ee1e738cddd2bf045a9d44fa1d1204e0bb9d39004c7a7cbb3f52bb399a19725d64736f6c63430008130033",
  "linkReferences": {},
  "deployedLinkReferences": {}
}